:020000040800F2
:10000000000002208D0100089301000897010008FC
:10001000090200080D020008550200080000000057
:1000200000000000000000000000000021050008A2
:10003000A102000800000000E105000845060008D4
:100040008901000889010008890100088901000868
:100050008901000889010008890100088901000858
:100060008901000889010008890100088901000848
:100070008901000889010008890100088901000838
:100080008901000889010008890100088901000828
:100090008901000889010008890100088901000818
:1000A0008901000889010008890100088901000808
:1000B00089010008890100088901000889010008F8
:1000C00089010008890100088901000889010008E8
:1000D00089010008890100088901000889010008D8
:1000E00089010008890100088901000889010008C8
:1000F00089010008890100088901000889010008B8
:1001000089010008890100088901000889010008A7
:100110008901000889010008890100088901000897
:100120008901000889010008890100088901000887
:100130008901000889010008890100088901000877
:100140008901000889010008890100088901000867
:100150008901000889010008890100088901000857
:100160008901000889010008890100088901000847
:1001700089010008890100088901000800000000C9
:10018000890100088901000800BEFEE708B500F0FB
:1001900093F800BEFEE71EF0040F0CBFEFF30880DB
:1001A000EFF309807146414A10472DE9F04182B0D2
:1001B00004460D46124B5F6BD3F838809E6A1B6B6A
:1001C00013F0020F03D00E4BDB6A002B0BDB0D4844
:1001D00002F092FB009543463A463146204602F033
:1001E0005FFA00BEFEE74BF6AB6102F0D3FA0028DF
:1001F000EDD0034B4FF00042DA6202B0BDE8F0816F
:1002000000ED00E0C851000800BEFEE71EF0040F3C
:100210000CBFEFF30880EFF309807146244A1047C2
:100220002DE9F04182B004460D46084B5F6BD3F8D0
:1002300038809E6A064802F05FFB009543463A46C6
:100240003146204602F02CFA00BEFEE700ED00E049
:10025000D85100081EF0040F0CBFEFF30880EFF335
:1002600009807146134A10472DE9F04182B00446D7
:100270000D46084B5F6BD3F838809E6A064802F043
:100280003BFB009543463A463146204602F008FAC9
:1002900000BEFEE700ED00E0E451000800BEFEE70E
:1002A00000BEFEE700BEFEE770470000AB0100089D
:1002B000210200086902000800B583B002F0DAFAF2
:1002C000384B394A1360394A1360394906E052F80D
:1002D000041B43F8041B9842F9D86146354B9942F8
:1002E00005D20A684B6801F10C0C8868F3E72E4BC5
:1002F0001A68314B9A4200D0FEE72C4B1A682F4BFC
:100300009A42F9D1274B2E4A13602E4A13602E4A87
:1003100000E002462D4B9A4209D2104650F8083BA5
:1003200051689942F5D9002243F8042BF9E7244B90
:100330001B6813B9234B1B6803B1FEE701F082FE73
:10034000694601A802F0E6FB214C224BE41AA410F6
:10035000002504E01F4B53F8253098470135AC4287
:10036000F8DC1D4C1D4BE41AA410002504E01B4BC7
:1003700053F8253098470135AC42F8DC00990198D4
:1003800002F024F80546164C164BE41AA41004E0BB
:10039000013C144B53F824309847002CF8DC2846D5
:1003A00002F054FBBABADECA00000020A800002008
:1003B000E803000800040008785634123254769896
:1003C000AC0000207C31012000040008100400086B
:1003D00010040008100400081004000810040008AD
:0803E0001004000810040008DD
:1003E8007454000800000020AC0000207454000879
:1003F8000000001000000010AC0000208031012037
:080408000000001000000010CC
:1004100000F1080343604FF0FF328260C360036164
:1004200000230360704700230361704743684B60FB
:100430009A688A60516099600861036801330360BB
:10044000704730B40D68B5F1FF3F11D000F10803DB
:100450001C465B681A68AA42FAD963684B609960C7
:100460008C606160086103680133036030BC7047D1
:100470000469F2E70369416882688A6041685160F3
:100480005A68824205D0002202611868013818605B
:10049000704782685A60F6E70B4B1B68B3F1FF3F69
:1004A00008D04FF0500383F31188BFF36F8FBFF371
:1004B0004F8FFEE74FF0500383F31188BFF36F8F28
:1004C000BFF34F8FFEE700BF04000020064800681E
:1004D000006880F3088862B661B6BFF34F8FBFF340
:1004E0006F8F00DF00BF000008ED00E04FF0807369
:1004F00040F8043C21F0010140F8081C054B40F88D
:100500000C3C40F8202C6FF0020340F8243C4438A7
:10051000704700BF990400080000000000000000C0
:10052000074B19680868B0E8F04F80F30988BFF3FB
:100530006F8F4FF0000080F311887047AFF3008099
:10054000102E0120074B1B68B3F57A7F08D04FF0BF
:10055000500383F31188BFF36F8FBFF34F8FFEE714
:10056000704700BF040000204FF0500383F3118850
:10057000BFF36F8FBFF34F8F0B4A136801331360C4
:10058000012B00D070474FF0E023D3F8043D13F067
:10059000FF0FF7D04FF0500383F31188BFF36F8F35
:1005A000BFF34F8FFEE700BF04000020094B1B681C
:1005B00043B94FF0500383F31188BFF36F8FBFF33C
:1005C0004F8FFEE7013B034A13600BB983F3118899
:1005D000704700BF04000020000000000000000081
:1005E000EFF30980BFF36F8F154B1A681EF0100FE1
:1005F00008BF20ED108A20E9F04F10604DF8043D4F
:100600004FF0500080F31188BFF34F8FBFF36F8F0F
:1006100001F096F84FF0000080F3118808BC1968CB
:100620000868B0E8F04F1EF0100F08BFB0EC108A59
:1006300080F30988BFF36F8F704700BFAFF300806E
:10064000102E012008B54FF0500383F31188BFF33B
:100650006F8FBFF34F8F00F01DFF28B14FF0E023E5
:100660004FF08052C3F8042D002383F3118808BD96
:10067000064B1B68064AA2FB03239B09013B4FF074
:10068000E022536107231361704700BF4000002040
:10069000D34D62104FF0E023D3F8002D344B9A4233
:1006A0001CD04FF0E023D3F8002D324B9A421ED0DD
:1006B00010B582B0304B1A78D2B20192FF221A7074
:1006C0001B78DBB28DF803309DF8033003F0500344
:1006D0002A4A13702A4B07221A601BE04FF050037E
:1006E00083F31188BFF36F8FBFF34F8FFEE74FF097
:1006F000500383F31188BFF36F8FBFF34F8FFEE773
:100700001F4A1368013B13609DF803305B00DBB2A6
:100710008DF803309DF8033013F0800FF0D1184AA4
:1007200013681B02136003F4E0631360019BDBB2E8
:10073000114A13704FF0E024D4F8203D43F47003C5
:10074000C4F8203DD4F8203D43F07043C4F8203D68
:10075000FFF78EFF0B4B00221A60D4F8343F43F0B2
:100760004043C4F8343FFFF7B1FEFFF795FE00BFEA
:1007700071C20F4170C20F4100E400E0B4000020DC
:10078000B000002004000020EFF305830F2B0FD9E9
:10079000114A9B5CDBB2114A12789A4208D94FF099
:1007A000500383F31188BFF36F8FBFF34F8FFEE7C2
:1007B0004FF0E023D3F80C3D03F4E063084A1268DD
:1007C000934208D94FF0500383F31188BFF36F8F22
:1007D000BFF34F8FFEE77047F0E300E0B400002066
:1007E000B0000020124A12F0070F1ED0D11D21F0D8
:1007F0000701C1F5963313440A460E4802600021F2
:1008000041601344083B23F007030B480360596021
:100810001960991A51601360084B1960084B1960F0
:10082000084B4FF000421A6070474FF49633E4E7EC
:10083000D0000020C8000020C4000020BC00002020
:10084000C0000020B8000020164B1A461B688342E7
:10085000FBD3516802EB010C844509D0416800EBE1
:10086000010C634509D00360904219D010607047B5
:100870004068014451601046F0E710B40A4C246807
:10088000A3420BD05B681944416013681B68036086
:10089000904200D010605DF8044B70470460F7E7A9
:1008A000704700BFC8000020C400002038B50446CF
:1008B00000F0E2FD3B4B1B68ABB13B4B1B681C429D
:1008C00014D1002C66D004F1080214F0070F02D0F6
:1008D00022F007020832D2B1344B1B6893421AD37C
:1008E00033490C681DE0FFF77DFFE6E700F066FE88
:1008F000002501F05DFE15F0070F51D04FF05003B9
:1009000083F31188BFF36F8FBFF34F8FFEE700F0C3
:1009100055FE0025EDE700F051FE0025E9E72146F0
:100920001C466368934202D22368002BF7D11D4B0B
:100930001B68A34214D00D68083523680B606368F8
:100940009B1A102B14D9A01810F0070F0CD04FF0E1
:10095000500383F31188BFF36F8FBFF34F8FFEE710
:1009600000F02CFE0025C4E743606260FFF76CFFD7
:1009700062680E490B689B1A0B600E4909688B422E
:1009800001D20C490B60084B1B68134363600023C2
:10099000236000E0002500F011FE002DABD1A8E798
:1009A000284638BDC4000020B8000020C000002048
:1009B000C8000020BC00002080B338B50446A0F178
:1009C000080550F8043C164A1268134208D14FF04B
:1009D000500383F31188BFF36F8FBFF34F8FFEE790
:1009E00050F8081C41B14FF0500383F31188BFF356
:1009F0006F8FBFF34F8FFEE723EA020340F8043CFA
:100A000000F03AFD54F8041C064A13680B441360C6
:100A10002846FFF719FF00F0D1FD38BD704700BF31
:100A2000B8000020C0000020014B1868704700BFCC
:100A3000C000002010B50446FFF796FDA26BE36BE3
:100A40009A4204D00024FFF7B1FD204610BD0124D6
:100A5000F9E710B50446FFF787FDA36B23B901241E
:100A6000FFF7A4FD204610BD0024F9E770B5044649
:100A70001546866B026C5AB903681BB1002001361B
:100A8000A66370BD406800F0F7FF00236360F6E7DF
:100A90006DB9806803F02DFBA368226C1344A3603A
:100AA0006268934219D32368A3602846E7E7C068C9
:100AB00003F01FFBE368226C51429B1AE36022683B
:100AC000934202D263680B44E360022D01D0002000
:100AD000D5E726B1013E0020D1E72846CFE7002028
:100AE000CDE70346026C6AB110B50846D9681144D7
:100AF000D9605C68A14201D31968D960D96803F054
:100B0000F8FA10BD704738B50546FFF72DFD95F88A
:100B1000454064B201E0013C64B2002C0ADD6B6A1E
:100B200043B105F1240000F0A5FE0028F3D000F049
:100B30003DFFF0E7FF2385F84530FFF737FDFFF76E
:100B400013FD95F8444064B201E0013C64B2002C0E
:100B50000ADD2B6943B105F1100000F08BFE00287F
:100B6000F3D000F023FFF0E7FF2385F84430FFF7D0
:100B70001DFD38BD38B5E0B10D460446FFF7F4FC65
:100B80002368E26B216C01FB023060600020A063EF
:100B9000A360013A02FB0133E360FF2384F8443091
:100BA00084F84530FDB9236963B9FFF7FFFC0120E4
:100BB00038BD4FF0500383F31188BFF36F8FBFF33D
:100BC0004F8FFEE704F1100000F054FE0028ECD037
:100BD0004FF0E0234FF08052C3F8042DBFF34F8F46
:100BE000BFF36F8FE1E704F11000FFF711FC04F190
:100BF0002400FFF70DFCD8E738B51D46049C0B46D2
:100C000049B92460E063236401212046FFF7B2FF65
:100C100084F84C5038BD2260F4E740B94FF05003DF
:100C200083F31188BFF36F8FBFF34F8FFEE7F0B5EB
:100C300083B00C461546064689B101FB00F05030E2
:100C4000FFF734FE074638B100902B4600F1500202
:100C500021463046FFF7D0FF384603B0F0BD0846C6
:100C6000EDE7F0B585B0019288B10F461D46044608
:100C7000B1B1022D20D1E36B012B1DD04FF05003F9
:100C800083F31188BFF36F8FBFF34F8FFEE74FF0F1
:100C9000500383F31188BFF36F8FBFF34F8FFEE7CD
:100CA000036C002BE5D04FF0500383F31188BFF3A2
:100CB0006F8FBFF34F8FFEE700F07EFE064658B9F8
:100CC000019B002B48D04FF0500383F31188BFF3F2
:100CD0006F8FBFF34F8FFEE700263DE02A4639466F
:100CE0002046FFF7C3FE636A7BB948B14FF0E023AB
:100CF0004FF08052C3F8042DBFF34F8FBFF36F8FB7
:100D0000FFF754FC012005B0F0BD04F1240000F011
:100D1000B1FD0028F4D04FF0E0234FF08052C3F82B
:100D2000042DBFF34F8FBFF36F8FE9E7FFF73EFC52
:100D30000020E8E702A800F0E3FD012619E0002307
:100D400084F8443021E0002384F8453023E0204635
:100D5000FFF7D9FE00F032FCFFF706FCA26BE36B55
:100D60009A42BBD3022DB9D0019B002BDED0002EBE
:100D7000E0D0FFF71BFC00F07FFBFFF7F5FB94F8DA
:100D8000442052B2B2F1FF3FD9D094F8452052B27C
:100D9000B2F1FF3FD7D0FFF709FC01A902A800F08C
:100DA000C5FDD8B92046FFF745FE0028CFD00199F0
:100DB00004F1100000F02AFD2046FFF7A4FE00F029
:100DC000FDFB0028C8D14FF0E0234FF08052C3F85C
:100DD000042DBFF34F8FBFF36F8FBDE72046FFF7A2
:100DE00092FE00F0EBFB00208DE72DE9F84390B177
:100DF0000F4616461C460546B1B1022C20D1EB6BBE
:100E0000012B1DD04FF0500383F31188BFF36F8F78
:100E1000BFF34F8FFEE74FF0500383F31188BFF30A
:100E20006F8FBFF34F8FFEE7036C002BE5D04FF0C1
:100E3000500383F31188BFF36F8FBFF34F8FFEE72B
:100E4000FFF7A2FCEFF311884FF0500383F31188F2
:100E5000BFF36F8FBFF34F8FAA6BEB6B9A4206D332
:100E6000022C04D0002088F31188BDE8F88395F89F
:100E700045904FFA89F9224639462846FFF7F6FD94
:100E8000B9F1FF3F06D009F101035BB285F84530A7
:100E90000120E8E76B6A0BB90120E4E705F12400C3
:100EA00000F0E8FC18B126B101203060DBE701203A
:100EB000D9E70120D7E72DE9F04184B00192A0B134
:100EC0000E4698460446C9B100F076FD054608BBBB
:100ED000019B002B00F087804FF0500383F31188B3
:100EE000BFF36F8FBFF34F8FFEE74FF0500383F3D5
:100EF0001188BFF36F8FBFF34F8FFEE7036C002B9A
:100F0000E2D04FF0500383F31188BFF36F8FBFF32C
:100F10004F8FFEE7002566E0E56831462046FFF783
:100F2000E0FDB8F1000F20D17B1EA36323683BB125
:100F300023694BB9FFF73AFB012004B0BDE8F0810B
:100F400000F0F2FD6060F3E704F1100000F092FCA5
:100F50000028EFD04FF0E0234FF08052C3F8042D6B
:100F6000BFF34F8FBFF36F8FE4E7E560636A002B39
:100F7000E0D004F1240000F07DFC0028DAD04FF02E
:100F8000E0234FF08052C3F8042DBFF34F8FBFF31F
:100F90006F8FCFE7FFF70AFB0020CEE702A800F033
:100FA000AFFC012529E0002384F8443031E0002320
:100FB00084F8453033E0FFF7D7FA606800F00CFDA5
:100FC000FFF7F4FA3BE02046FFF79DFD00F0F6FA4C
:100FD00009E02046FFF797FD00F0F0FA2046FFF702
:100FE00038FD002842D1FFF7BFFAA76B002F93D13D
:100FF000019B002BCED0002DD0D0FFF7D7FA00F008
:101000003BFAFFF7B1FA94F8442052B2B2F1FF3F35
:10101000C9D094F8452052B2B2F1FF3FC7D0FFF7D4
:10102000C5FA01A902A800F081FC0028D1D1204610
:10103000FFF70FFD0028C6D02368002BBBD0019915
:1010400004F1240000F0E2FB2046FFF75CFD00F015
:10105000B5FA0028C7D14FF0E0234FF08052C3F813
:10106000042DBFF34F8FBFF36F8FBCE7002064E701
:101070000023072B0CD8074A52F833200AB101335A
:10108000F7E7044A42F8331002EBC302506070479E
:10109000704700BFD02C012070B504460D4616469F
:1010A000FFF762FA94F844305BB2B3F1FF3F0DD022
:1010B00094F845305BB2B3F1FF3F0BD0FFF776FAFF
:1010C000A36B5BB12046FFF71EFD70BD002384F8C3
:1010D0004430EDE7002384F84530EFE732462946F7
:1010E00004F1240000F0AAFBECE70000084B1B68A9
:1010F0001B6823B9074B4FF0FF321A607047044B4F
:101100001B68DB68DB685A68024B1A60704700BFD7
:10111000802D0120182D012010B50446006BFFF72B
:101120004BFC2046FFF748FC10BD2DE9F0478046F8
:101130000D4617469946089EDDF824A00A9C9200A9
:10114000A521206B02F074FF236B07F18042013A66
:1011500003EB820727F007074FF0000CBCF1090FE3
:1011600009D815F90C3004EB0C0282F8343013B1B5
:101170000CF1010CF2E7002384F83D30042E00D975
:101180000426E662A6640025E564201DFFF74BF9FE
:1011900004F11800FFF747F92461C6F10506A661BE
:1011A0006462256584F854504A4641463846FFF744
:1011B0009DF92060BAF1000F01D0CAF80040BDE8E7
:1011C000F087000038B5002407E004EB84029300A8
:1011D0000E481844FFF71CF90134042CF5D90C4DC6
:1011E0002846FFF715F90B4C2046FFF711F90A487E
:1011F000FFF70EF90948FFF70BF90948FFF708F95F
:10120000084B1D60084B1C6038BD00BFAC2D012091
:10121000982D0120842D0120682D0120542D0120BE
:101220003C2D0120802D01207C2D012010B504468D
:10123000FFF79AF9224A136801331360214B1B68A8
:101240005BB1214B1B686BB91E4B1B68DA6AE36A02
:101250009A4207D81B4B1C6004E01A4B1C601368B1
:10126000012B29D0194A1368013313602364E06A03
:1012700001238340164A11680B43136000EB800082
:10128000211D144B03EB8000FFF7D0F8FFF78EF918
:101290000D4B1B687BB10B4B1B68DA6AE36A9A4201
:1012A00009D24FF0E0234FF08052C3F8042DBFF372
:1012B0004F8FBFF36F8F10BDFFF784FFD2E700BFE2
:1012C000382D0120102E01202C2D01201C2D012055
:1012D000302D0120AC2D012070B504460D461D4B6C
:1012E0001E681D4B18680430FFF7C4F848B91A4B44
:1012F0001B68DB6A01229A4018490B6823EA020343
:101300000B60B4F1FF3F0DD03444134B1B685C609D
:10131000A64210D9124B18680F4B19680431FFF719
:1013200090F870BD002DEFD00B4B196804310D48BB
:10133000FFF77CF8F5E70C4B1868074B1968043188
:10134000FFF77FF8094B1B68A342EAD9074B1C60E3
:10135000E7E700BF342D0120102E0120302D0120A1
:101360007C2D01203C2D0120802D0120182D0120F5
:101370002DE9F04385B007460E4614461D46900001
:10138000FFF794FAF8B181465820FFF78FFA8046AC
:1013900098B1C0F830900023039302900D9B019305
:1013A0000C9B00932B46224631463846FFF7BDFE84
:1013B0004046FFF73BFF012007E04846FFF7FCFAF5
:1013C0004FF0FF3001E04FF0FF3005B0BDE8F08393
:1013D00000B583B0194B0193002300938222184972
:1013E0001848FFF7C5FF012805D0B0F1FF3F1BD01B
:1013F00003B05DF804FB00F027FC0128F5D14FF0A5
:10140000500383F31188BFF36F8FBFF34F8F0E4BE1
:101410004FF0FF321A600D4B01221A600C4B002274
:101420001A60FFF737F9E3E74FF0500383F31188B1
:10143000BFF36F8FBFF34F8FFEE700BF142D012066
:101440003C4F000811170008182D01202C2D0120F9
:10145000342D012008B54FF0500383F31188BFF3FA
:101460006F8FBFF34F8F034B00221A60FFF76AF8AC
:1014700008BD00BF2C2D0120024A13680133136000
:10148000704700BF102D0120014B1868704700BF46
:10149000342D0120F8B53E4B1B68002B6AD13D4B23
:1014A0001D6801351D60C5B93B4B1B681B6843B106
:1014B0004FF0500383F31188BFF36F8FBFF34F8F4B
:1014C000FEE7354A1168354B186810601960344AD8
:1014D000136801331360FFF709FE324B1B68AB4200
:1014E0003ED90027304B1B68DB6A03EB83039A006D
:1014F0002E4B9B58012B00D901272D4B1B68002B2D
:101500003FD101F060F83CE00127234B1B681B68CA
:1015100043B3214B1B68DB68DC6863689D4226D3BC
:10152000261D3046FEF7A6FFA36A1BB104F1180082
:10153000FEF7A0FFE36A01229A401E4908680243B1
:101540000A6003EB83039A00314618481044FEF703
:101550006DFFE26A144B1B68DB6A9A42D4D2D4E76F
:101560000027D2E70F4B4FF0FF321A60BAE70D4A5F
:101570001360B7E70E4A13680133136001F023F8D4
:1015800000270D4B1B6803B101273846F8BD00BF8B
:10159000102D0120342D0120802D01207C2D0120D3
:1015A000202D0120182D0120102E0120AC2D01200E
:1015B000282D0120302D0120242D012038B5354B58
:1015C0001B6843B94FF0500383F31188BFF36F8F4B
:1015D000BFF34F8FFEE7FEF7C7FF2E4B1A68013AA5
:1015E0001A601B68002B4FD12B4B1B680BB90024D2
:1015F0004BE00024294B1B681BB3284BDB68DC68DD
:1016000004F11800FEF736FF251D2846FEF732FFCD
:10161000E06A01238340224A11680B43136000EB08
:10162000800029461F4B03EB8000FEF7FFFEE26AB5
:101630001D4B1B68DB6A9A42DCD31C4B01221A60EB
:10164000D8E70CB1FFF752FD194B1C6884B9174B52
:101650001C68D4B14FF0E0234FF08052C3F8042D42
:10166000BFF34F8FBFF36F8F01240EE0013C07D013
:10167000FFF710FF0028F9D00C4B01221A60F5E7A4
:101680000B4B00221A60E2E70024FEF78FFF204692
:1016900038BD00BF102D0120382D0120682D0120FC
:1016A000302D0120AC2D0120102E0120242D0120F1
:1016B000282D0120134B1B6813B310B5FFF7DCFE78
:1016C000114B1C68FFF77AFF24B90E4B1B68002BE7
:1016D000F4D110BDFEF748FF0B4BDB68DC68201D22
:1016E000FEF7C8FE094A1368013B1360054A1368F8
:1016F000013B1360FEF75AFF2046FFF70DFDE4E7BC
:10170000704700BF502D0120542D0120382D01209D
:1017100008B50BE04FF0E0234FF08052C3F8042DE2
:10172000BFF34F8FBFF36F8F00F044FFFFF7C2FF8F
:10173000024B1B68012BEDD8F6E700BFAC2D012052
:1017400008B52D4B1B681BB12C4B01221A6008BD3C
:101750002A4B00221A602A4B1B681B6B1A68B2F1D5
:10176000A53F03D15A68B2F1A53F1BD0244B18689E
:101770001968343100F01DFF224B1B68B3FA83F364
:10178000DBB2C3F11F0303EB83018A001E498A58B1
:101790008AB94FF0500383F31188BFF36F8FBFF303
:1017A0004F8FFEE79A68B2F1A53FDFD1DB68B3F156
:1017B000A53FDBD1E0E7144803EB83018A00024434
:1017C00051684968516003EB830C4FEA8C02083280
:1017D0000244914209D003EB83039A000A4B13445D
:1017E0005B68DA68064B1A60B1E7486862469100A8
:1017F000054A0A445060EEE7102D0120242D0120F7
:10180000102E0120302D0120AC2D012058B110B533
:101810000C46094A11681831FEF713FE01212046D3
:10182000FFF75AFD10BD4FF0500383F31188BFF34B
:101830006F8FBFF34F8FFEE7102E012038B570B1C8
:101840000D4614460A4A11681831FEF7EFFD0CB137
:101850004FF0FF3521462846FFF73EFD38BD4FF0DB
:10186000500383F31188BFF36F8FBFF34F8FFEE7F1
:10187000102E012038B5C368DC6824B304F11805C4
:101880002846FEF7F7FD184B1B682BBB251D284685
:10189000FEF7F0FDE06A01238340144A11680B4310
:1018A000136000EB80002946114B03EB8000FEF72C
:1018B000BDFDE26A0F4B1B68DB6A9A4211D9012019
:1018C0000D4B186038BD4FF0500383F31188BFF300
:1018D0006F8FBFF34F8FFEE729460848FEF7A6FD3E
:1018E000E7E70020EEE700BF102D0120302D01209A
:1018F000AC2D0120102E0120242D0120682D012067
:1019000030B1084A12680260074A126842607047A4
:101910004FF0500383F31188BFF36F8FBFF34F8FE6
:10192000FEE700BF202D0120342D012038B5C0B1C5
:101930000C460546F1B1FEF717FE1A4B1A682368EC
:10194000B3F1FF3F27D0286817490968884202D0C1
:101950006968914224D96968501A834213D80124D6
:101960001AE04FF0500383F31188BFF36F8FBFF37A
:101970004F8FFEE74FF0500383F31188BFF36F8F53
:10198000BFF34F8FFEE7891A0B4423602846FFF709
:10199000B7FF002400E00024FEF708FE204638BD13
:1019A0000124F9E7342D0120202D0120014B0122D3
:1019B0001A607047242D0120054B1B6833B1054B7D
:1019C0001B680BB100207047022070470120704750
:1019D0002C2D0120102D0120002845D038B50446BB
:1019E000C36A224A1268D26A934214D28269002AD8
:1019F00005DB1E4A1268D26AC2F105028261616982
:101A000003EB83031A4A02EB8303994204D0174B7A
:101A10001B68DB6AE36238BD251D2846FEF72AFDF8
:101A200090B1124B1B68D86AE06201238340114ACF
:101A300011680B43136000EB800029460C4B03EB4D
:101A40008000FEF7F3FCE6E7E36A03EB8301084A54
:101A500052F82120002AE4D101229A4005490B685E
:101A600023EA02030B60DCE7704700BF102E012061
:101A7000AC2D0120302D012000284BD038B5044674
:101A8000264B1B68834208D04FF0500383F3118824
:101A9000BFF36F8FBFF34F8FFEE7C36C43B94FF0B7
:101AA000500383F31188BFF36F8FBFF34F8FFEE7AF
:101AB000013BC364C16A826C91422DD00BB10020FE
:101AC00038BD051D2846FEF7D5FC68B9E36A03EB6F
:101AD0008301134A52F8212032B901229A40114958
:101AE0000B6823EA02030B60A06CE062C0F10503FF
:101AF000A361012404FA00F30A4A11680B4313603E
:101B000000EB80002946064B03EB8000FEF78EFCBD
:101B10002046D5E7002070470020D1E7102E012095
:101B2000AC2D0120302D0120054B1B6823B1044B47
:101B30001A68D36C0133D364014B1868704700BF37
:101B4000102E0120064B1A681368B3FA83F35B0961
:101B5000036013B9D368186870470020704700BF4E
:101B6000242E012008B54160006191420CD8D21AA0
:101B700083699A4201D3012008BD011D094B1868F1
:101B8000FEF75FFC0020F7E79A4201D2994206D2A5
:101B9000011D054B1868FEF754FC0020ECE70120FE
:101BA000EAE700BF202E0120242E012038B5FEF7E1
:101BB000DBFC0F4B1B6813B1FEF7F8FC38BD0D4D75
:101BC0002846FEF725FC0C4C2046FEF721FC0B4B6B
:101BD0001D600B4B1C6000220C210A20FFF71DF832
:101BE000034B18600028E7D00649FFF741FAE3E706
:101BF0001C2E01203C2E0120282E0120242E012005
:101C0000202E0120444F00082DE9F041079F41B9E3
:101C10004FF0500383F31188BFF36F8FBFF34F8FE3
:101C2000FEE7064615461C4688465FB1FFF7BEFF35
:101C30003E60C7F81880FD613C62069B7B62381DE0
:101C4000FEF7F1FBBDE8F08100B583B0FFF7AEFF12
:101C50000D4B1B685BB10D4B0193022300930023D6
:101C60004FF482720A490B48FFF782FB40B94FF0EC
:101C7000500383F31188BFF36F8FBFF34F8FFEE7DD
:101C800003B05DF804FB00BF1C2E0120182E0120BC
:101C90004C4F00088D1F00082DE9F04182B004462A
:101CA000884615461E462C20FEF700FE074640B12A
:101CB0000190089B009333462A4641462046FFF791
:101CC000A3FF384602B0BDE8F0810000B8B19C46E1
:101CD00003461848006858B300B585B001910292D8
:101CE000039305291CDCFFF767FE022810D00023B0
:101CF0001A4601A90F480068FEF7B3FF15E04FF040
:101D0000500383F31188BFF36F8FBFF34F8FFEE74C
:101D10000023069A01A907480068FEF7A2FF04E025
:101D20000023624601A9FFF760F805B05DF804FBE7
:101D3000002070471C2E012070B582B01A4B1B6822
:101D40001A6852B3DB681E68DC68251D2846FEF75A
:101D500091FB636A20469847E369012BEED1A369A2
:101D600033449E4207D26360246129460E4B1868B3
:101D7000FEF767FBE2E7002100910B463246204662
:101D8000FFF7A4FF0028D9D14FF0500383F3118847
:101D9000BFF36F8FBFF34F8FFEE7044A106802490D
:101DA0000860136002B070BD242E0120202E012097
:101DB00038B50546FFF768FB0446074B1B688342AE
:101DC00005D800232B60044B1C60204638BDFFF76C
:101DD000B3FF01232B60F6E7142E012070B582B00B
:101DE00006460D4614490968C968CC68201DFEF7EF
:101DF00041FBE169012904D0636A2046984702B09B
:101E000070BDA16933462A4631442046FFF7AAFE39
:101E10000028F1D0002100910B4632462046FFF702
:101E200055FF0028E8D14FF0500383F31188BFF32A
:101E30006F8FBFF34F8FFEE7242E012070B582B065
:101E400006460C46FFF718FB01A8FFF7B1FF019B00
:101E500023BB054644B9B0420CD3FFF7AFFB29467C
:101E60003046FFF7BBFF1BE00E4B1B681C68B4FA43
:101E700084F464092246711B0B4B1868FFF70CF9B8
:101E8000FFF79CFB60B94FF0E0234FF08052C3F89E
:101E9000042DBFF34F8FBFF36F8F01E0FFF78EFB71
:101EA00002B070BD202E01201C2E012010B586B07E
:101EB00000231A4603A934480068FEF7FCFF0028F7
:101EC00060D0039B002BF3DB059C636913B1201DDD
:101ED000FEF7D0FA02A8FFF76BFF039B092BE7D8A8
:101EE00001A252F823F000BF111F0008111F0008C3
:101EF000111F0008B11E0008571F00087D1F0008B1
:101F0000111F0008111F0008B11E0008571F00080C
:101F1000049BA169024619442046FFF723FE0028CE
:101F2000C6D0636A20469847E369012BC0D1A269F5
:101F3000002100910B46049802442046FFF7C6FE9C
:101F40000028B5D14FF0500383F31188BFF36F8F92
:101F5000BFF34F8FFEE70499A16131B103460246FA
:101F600001442046FFF7FEFDA2E74FF0500383F344
:101F70001188BFF36F8FBFF34F8FFEE72046FEF748
:101F80001BFD95E706B010BD1C2E012000B583B0E7
:101F900001A8FFF7D7FD0199FFF750FFFFF786FF74
:101FA000F6E7000030B595B000240194224B1A6C7E
:101FB00042F080521A641B6C03F080530193019B22
:101FC00002941E4B1A6842F480421A601B6803F4A4
:101FD00080430293029B012308934FF480330993BB
:101FE0004FF480030F93082310934FF4A8731193B9
:101FF00002251295072313930E9508A800F0FEFF03
:102000000F230393049505944FF4A05306934FF4C4
:1020100080530793052103A801F0DAFA01F0EAFBE7
:10202000074BA3FB0030800900F0BAFF042000F04A
:10203000CBFF15B030BD00BF00380240007000403B
:10204000D34D621008B500F015FFFFF7ABFF00F0AD
:10205000C5FA08BD08B50A460146024800F04CFC26
:10206000FEE700BF544F000800B587B002E00F48FC
:1020700001F0A6FE00234FF0FF3219460C4800681D
:10208000FEF719FF0028F5D000231E2201A90948F8
:102090000068FEF710FF0028E9D0074A13680133F3
:1020A000136001A9054801F023FEE3E7944F0008FF
:1020B000502E01205C2E0120602E0120844F00084C
:1020C00000B587B006E0144801F07AFE134A1368A1
:1020D0000133136000234FF0FF32194610480068A7
:1020E000FEF7E9FE0028F5D0FFF7CEF902460D49CC
:1020F00001A801F06DFE00230A2201A90A48006828
:10210000FEF7AFFD0028DED0084A136801331360E4
:10211000074801F055FEDDE7BC4F0008682E01209E
:10212000582E0120A44F00085C2E0120642E0120AF
:10213000B04F000800B587B006E0144801F040FE3B
:10214000134A13680133136000234FF0FF3219461E
:1021500010480068FEF7AFFE0028F5D0FFF794F9AD
:1021600002460D4901A801F033FE00230A2201A90D
:102170000A480068FEF775FD0028DED0084A13689B
:1021800001331360074801F01BFEDDE7DC4F000858
:10219000682E0120542E0120A44F00085C2E01203F
:1021A000642E0120D04F000838B505460C4601F0DA
:1021B0009FFC611B013190FBF1F301FB13002844EC
:1021C00038BD000000B583B000231A4619460D48FB
:1021D0000068FEF746FD0C4B1B680C4A52F82310B2
:1021E0000B4A52F82300FFF7DFFF0246094B186045
:1021F00000230093042108480068FFF767FD03B03F
:102200005DF804FB542E0120380000200800002057
:10221000200000203C0000207C2E012000B583B06F
:1022200000231A4619460D480068FEF71AFD0C4BAC
:102230001B680C4A52F823100B4A52F82300FFF790
:10224000B3FF0246094B186000230093042108489D
:102250000068FFF73BFD03B05DF804FB582E01203A
:102260003800002008000020200000203C00002052
:10227000802E012030B583B03B4B1B68B3F1FF3F8C
:1022800016D1394B1B68052B1DD0374A1368013313
:102290001360002B4BD00021344B1960344B196074
:1022A000344B1960344B1868FEF764FC03B030BD42
:1022B0002E4B1968314801F01BFD2D4B1968304831
:1022C00001F016FDDDE72F4D002400942346224641
:1022D00003212868FFF7FAFC0094234622460521D3
:1022E0002868FFF7F3FC284D00942346224603217B
:1022F0002868FFF7EBFC0094234622460521286856
:10230000FFF7E4FC214D0094234622460321286870
:10231000FFF7DCFC00942346224605212868FFF7DE
:10232000D5FC1B4801F04CFDFFF794F8ADE7194AC6
:1023300052F82310184A52F82300FFF735FF0246DF
:10234000164D286000240094234604210D4800689F
:10235000FFF7BCFC009423462A6804210A48006861
:10236000FFF7B4FC97E700BF38000020642E01207F
:10237000682E0120602E01205C2E0120F04F000805
:102380001C500008802E01207C2E0120782E012078
:102390004450000808000020200000203C000020DD
:1023A00008B500231A46194606480068FEF759FC8E
:1023B000054B1B68B3F5FA7F00D008BDFFF75AFF45
:1023C000FBE700BF502E0120602E01202DE9F043D5
:1023D00083B0032200210120FEF71FFC5C4B186034
:1023E00020B100231A461946FEF73BFC03220021C8
:1023F0000120FEF712FC574B186020B100231A464B
:102400001946FEF72EFC032200210120FEF705FCF1
:10241000514B186020B100231A461946FEF721FCE3
:10242000002214210220FEF7F8FB4C4B1860002418
:1024300001940125009523464FF48062484949489C
:10244000FEF796FF0194009523464FF480624649BB
:102450004648FEF78DFF01940223009323464FF474
:10246000806243494348FEF783FFDFF84091D9F883
:1024700000104FF47A7808FB01F13F4EA6FB0131C2
:102480003E4B009323462A4689093D48FFF704FC4A
:102490003C4F3860D9F8001008FB01F1A6FB016140
:1024A000394B009323462A4689093848FFF7F4FB45
:1024B000374B1860374B009323462A466421364831
:1024C000FFF7EAFB354B1860FFF7D4FE3C685CB3BE
:1024D0002F4B1B6843B3314B1B682BB3FEF7D4FF64
:1024E0000246002500952B4601212046FFF7EEFB12
:1024F0002B4B1860264B1C68FEF7C6FF0246009562
:102500002B4601212046FFF7E1FB264B1860234BA9
:102510001C68FEF7B9FF024600952B4601212046B4
:10252000FFF7D4FB204B18601D4B1B68012B03D019
:10253000002003B0BDE8F0831A4B1B68012BF7D1D4
:10254000194B1B68012BF3D1FEF742FFF0E700BFE8
:10255000582E0120542E0120502E01205C2E0120E7
:1025600050500008C12000086050000835210008C4
:102570007050000869200008D34D62101D22000829
:1025800080500008802E0120C521000888500008D6
:102590007C2E0120A123000890500008782E0120F5
:1025A000742E0120702E01206C2E01203C00002092
:1025B000FEE7FEE700B583B0FEF736FA0190019B17
:1025C00003B05DF804FB704770470000024B4FF00A
:1025D00000629A60704700BF00ED00E0224B9B68EC
:1025E00003F00C03042B14D0082B16D01BB11F4B87
:1025F0001F4A1A6002E01D4B1D4A1A601A4B9B6865
:10260000C3F303131B4AD15C184A1368CB40136011
:102610007047164B184A1A60F0E7134B59685A680E
:1026200002F03F0211F4800F13D0134BB3FBF2F30F
:102630000D4A5268C2F3881202FB03F30A4A526839
:10264000C2F3014201325200B3FBF2F3074A1360B6
:10265000D4E7074BB3FBF2F3034A5268C2F3881284
:1026600002FB03F3EAE700BF00380240400000200D
:102670000024F4009850000800127A00BFF34F8F36
:102680000549CA6802F4E062044B1343CB60BFF310
:102690004F8F00BFFDE700BF00ED00E00400FA052A
:1026A000F8B504460D4617461E46274800F024F9A3
:1026B0002168264800F020F96168254800F01CF9DF
:1026C000A168244800F018F9E168234800F014F9E3
:1026D0002169224800F010F96169214800F00CF9E5
:1026E000A169204800F008F9E1691F4800F004F9E9
:1026F0001E4800F001F929461D4800F0FDF81D4C68
:10270000E16A1D4800F0F8F8216B1C4800F0F4F86D
:10271000E16B1B4800F0F0F815F0800F0AD115F4BA
:10272000004F0CD1174800F0E7F80699164800F062
:10273000E3F8F8BD3946154800F0DEF8EFE731461A
:10274000134800F0D9F8EDE7A8500008B850000889
:10275000C8500008D8500008E8500008F850000899
:102760000851000818510008285100083851000885
:102770004451000800ED00E0545100086451000885
:1027800074510008A4510008AC510008845100089D
:102790009451000838B583691B888B4201D0002012
:1027A00038BD044603684568013B302B5ED8DFE83E
:1027B00003F03B211C1C5330332D19195D191919D5
:1027C00019193619245D19275D395D5D5D5D5D5D03
:1027D0005D5D5D5D5D5D5D5D5D5D5D5D5D5D5D5D29
:1027E0005D1919004FF0FF330360A3690233A36141
:1027F0000120D5E700230360F7E700230360F4E737
:1028000000232B606B60AB60EB60EEE7002303609E
:10281000EBE7AB680360E8E700230360E5E700232C
:102820000360E2E7FFF72AFF1149286801F057FC2F
:1028300040B96B6813B901232360D6E7042B05D098
:10284000082B06D04FF0FF332360CEE7022323602E
:10285000CBE703232360C8E72B68023B012B02D997
:10286000AB680360C1E700230360BEE7002097E781
:10287000C451000808B5FFF7A9FE024A024B9A604E
:1028800008BD00BF0000000800ED00E02DE9F043A6
:1028900085B004460F4643563BBB042528462146D7
:1028A000ABBE0546384605B0BDE8F08314F901CB50
:1028B00003F110026A4402F810CC0133AB42F5D3A5
:1028C00010336B44002203F8102C4FF00408E94643
:1028D00040464946ABBE8046761B002EE2D03546C8
:1028E000102E28BF10250023E8E70E46F5E708B5AF
:1028F000FFF7CCFF08BD00000FB400B583B004ABF8
:1029000053F8042B01938021074801F0EFFA0028C7
:1029100004DC03B05DF804EB04B0704701460248E4
:10292000FFF7E5FFF5E700BF842E012010B5044650
:1029300001F0EDFB01462046FFF7D9FF01210248D7
:10294000FFF7D5FF10BD00BF904F000800B583B062
:102950008C46194652B11446064B019400936346C7
:1029600002460548FFF7C8FF00F00AF8034B1C4673
:10297000F3E700BFF451000804520008804F00083C
:1029800008B50348FFF7D2FF012000F05FF800BF51
:102990003452000808B503460C4A12685AB10B4A73
:1029A0001068033323F003030344094A934206D813
:1029B000064A136008BD054A06491160EFE701F0B9
:1029C00085FB0C2303604FF0FF30F3E7042F012059
:1029D00000FC01208031012030B513240025204661
:1029E0002946ABBE0446204630BD38B5044601F04A
:1029F0006DFB0546FFF7F0FF2860204638BDB0F1BB
:102A0000FF3F00D0704708B5FFF7EFFF08BD00009B
:102A100010B504460B4B186808B143685BB1132C22
:102A20000CD8094B53F83430B3F1FF3F08D00648B7
:102A300000EBC40010BD01F025F9F0E70020F9E734
:102A40000020F7E7580000208C2F012000B530B996
:102A5000044D182420462946ABBE0446FEE7024D2D
:102A6000F7E700BF26000200230002002DE9F04135
:102A700084B0234F01970326039600230293012479
:102A800001AD20462946ABBE80461E4BC3F80080F0
:102A9000019703960423029320462946ABBE804645
:102AA000194BC3F800800197039608230293204630
:102AB0002946ABBE0446154B1C60B4F1FF3F01D064
:102AC00000230AE0104B1A68104B1A60F8E7104A0E
:102AD0004FF0FF3142F833100133132BF7DD0C4B6D
:102AE000084A12681A6000225A600749096899600A
:102AF000DA600649096819615A6104B0BDE8F081DD
:102B0000C4510008882F0120842F0120802F01202C
:102B10008C2F01202DE9F04383B0814688462A4B53
:102B200000934F23019315276C4638462146ABBED0
:102B30000746AFBB244B002283F84F20009A3E4645
:102B40003C463D4607E001321E46204B43F8252017
:102B500001350124013292F90030FBB164B91C49FE
:102B6000C9560029F6DB092BF4D0082D16DC222BE0
:102B7000E9D0272BE9D1E6E736B19E42EAD100231E
:102B800013703E463C46E5E71149C956002901DB72
:102B9000092BDFD1002313703446DBE73DB900E099
:102BA0000025094B00221A70084A13600135074BB3
:102BB000002243F82520C9F80050C8F80030FFF77C
:102BC00055FF03B0BDE8F083302F0120082F01200E
:102BD0003753000830B585B0019002910392062466
:102BE00001AD20462946ABBE04462046FFF707FF4D
:102BF00005B030BD70B50D461446FFF709FF68B14A
:102C00000646224629460068FFF7E4FFB0F1FF3F81
:102C100003D07368201A0344736070BD01F056FA44
:102C2000092303604FF0FF30F7E7F0B583B00C469F
:102C30001546FFF7EDFEC0B10646022D1CD8012D4A
:102C400021D0022D29D03368009301940A256F46C4
:102C500028463946ABBE05462846FFF7D0FE002879
:102C60002BDB7460204603B0F0BD01F02FFA09237E
:102C700003604FF0FF30F6E701F028FA16230360F7
:102C80004FF0FF30EFE74368E418DCD501F01EFA9F
:102C9000162303604FF0FF30E5E7036800930C252F
:102CA0006F4628463946ABBE05462846FFF7A7FEC5
:102CB000B0F1FF3FD7D00444C5E74FF0FF30D2E773
:102CC00008B5FFF7B2FF08BD30B585B0019002919D
:102CD0000392052401AD20462946ABBE044620469A
:102CE000FFF78DFE05B030BD70B50D461446FFF7F9
:102CF0008FFE70B10646224629460068FFF7E4FFC2
:102D0000031E11DB7268E01A024472609C4207D015
:102D100070BD01F0DBF9092303604FF0FF30F7E7E6
:102D20000020FFF762FEF3E74FF0FF30F0E730B529
:102D300083B00190022401AD20462946ABBE044673
:102D40002046FFF75CFE03B030BD000038B50446F6
:102D5000FFF75EFE80B10546601E012804D80C4BCB
:102D60009A681B699A420ED02868FFF7E0FF10B9F5
:102D70004FF0FF332B6038BD01F0A8F90923036041
:102D80004FF0FF30F7E74FF0FF332B600020F2E702
:102D90008C2F012070B50C46FFF73AFEA8B106460D
:102DA000636843F4005363604FF48063A3640C25AD
:102DB00028463146ABBE05462846FFF720FEB0F157
:102DC000FF3F01D02061002070BD01F07FF9092391
:102DD00003604FF0FF30F7E738B505460C46582240
:102DE0000021204601F024F921462846FFF7D2FFB2
:102DF00038BD38B5FFF70CFE80B1054609242046E2
:102E00002946ABBE04462046012C06D001F05EF9EF
:102E10000446FFF7E1FD2060002038BD01F056F9BF
:102E2000092303600020F8E710B504460E4B1A781A
:102E30004FF47A73B3FBF2F30C4A1068B0FBF3F073
:102E400000F0AEF868B90F2C01D901200AE0002289
:102E500021464FF0FF3000F07FF8054B1C6000204A
:102E600000E0012010BD00BF440000204000002011
:102E70004800002008B50B4B1A6842F400721A6033
:102E80001A6842F480621A601A6842F480721A600A
:102E9000032000F043F80F20FFF7C6FFFFF794FB75
:102EA000002008BD003C0240014B1868704700BF7D
:102EB00030300120002808DB0901C9B200F1604070
:102EC00000F5614080F80013704700F00F00090121
:102ED000C9B2014B1954704714ED00E000B500F081
:102EE0000700C0F1070CBCF1040F28BF4FF0040C21
:102EF000031D062B0FD9C31E4FF0FF3E0EFA0CF038
:102F000021EA000199400EFA03FE22EA0E0241EA8C
:102F100002005DF804FB0023EEE7000010B5044654
:102F2000C31E042B0FD80A4AD36823F4E0631B04A2
:102F30001B0C240204F4E064234343F0BF6343F416
:102F40000033D36010BD92210248FFF783F8EAE70F
:102F500000ED00E04852000870B506460C461546E4
:102F60000F2A0ED80F2C11D80B4BD8682A462146B1
:102F7000C0F30220FFF7B2FF01463046FFF79AFF89
:102F800070BDAA210548FFF765F8EBE7AB210348C0
:102F9000FFF760F8E8E700BF00ED00E048520008E6
:102FA0000138B0F1807F0BD24FF0E0235861054A21
:102FB000F02182F823100020986107221A617047DF
:102FC0000120704700ED00E008B5042807D068B97B
:102FD0004FF0E022136923F00403136108BD4FF0A2
:102FE000E022136943F004031361F7E740F2C911CB
:102FF0000148FFF72FF8EBE748520008002800F0DF
:103000005B8270B582B0044603680F2B39D8236801
:1030100013F0010F4DD063682BB1B3F5803F02D0A0
:10302000B3F5A02F32D1804B9B6803F00C03042B27
:1030300036D07D4B9B6803F00C03082B2BD06368C4
:10304000B3F5803F5FD0B3F5A02F62D0764B1A68FE
:1030500022F480321A601A6822F480221A606368AF
:10306000002B60D0FFF720FF05466F4B1B6813F461
:10307000003F1ED1FFF718FF401B6428F5D903203D
:1030800021E2E8216948FEF7E5FFC0E7ED21674846
:10309000FEF7E0FFC7E7644B5B6813F4800FCED008
:1030A000614B1B6813F4003F03D06368002B00F0F2
:1030B0000582236813F0020F66D0E368012B41D824
:1030C00023691F2B44D8584B9B6813F00C0F4AD030
:1030D000554B9B6803F00C03082B3FD0E368002B93
:1030E00077D0534B01221A60FFF7DEFE05464E4BA8
:1030F0001B6813F0020F63D1FFF7D6FE401B0228B6
:10310000F5D90320DFE1484A136843F480331360A4
:10311000A5E7454B1A6842F480221A601A6842F407
:1031200080321A609BE7FFF7BFFE05463E4B1B68E7
:1031300013F4003FBDD0FFF7B7FE401B6428F5D95C
:103140000320C0E140F21F113848FEF783FFB7E7C4
:103150004FF490713548FEF77DFFB4E7324B5B6862
:1031600013F4800FBAD1304B1B6813F0020F03D059
:10317000E368012B40F0A4812B4A136823F0F80385
:10318000216943EAC1031360236813F0080F51D08B
:103190006369012B2FD863699BB3254B0122C3F8C8
:1031A000802EFFF781FE05461F4B5B6F13F0020F69
:1031B00040D1FFF779FE401B0228F5D9032082E1B8
:1031C000194A136823F0F803216943EAC103136025
:1031D000DAE7174B00221A60FFF766FE0546124B2E
:1031E0001B6813F0020FCFD0FFF75EFE401B0228D2
:1031F000F5D9032067E14FF4B0710C48FEF72AFFC0
:10320000C9E70B4B0022C3F8802EFFF74DFE0546A1
:10321000054B5B6F13F0020F0CD0FFF745FE401B10
:103220000228F5D903204EE1003802407C52000804
:1032300000004742236813F0040F7CD0A368012BE1
:1032400001D9052B38D1A44B1B6C13F0805F39D109
:1032500000230193A04B1A6C42F080521A641B6C3D
:1032600003F080530193019B01259C4B1B6813F4D1
:10327000807F29D0A368012B3AD0052B3ED0964BF6
:103280001A6F22F001021A671A6F22F004021A67FD
:10329000A368002B3CD0FFF707FE06468E4B1B6F42
:1032A00013F0020F45D1FFF7FFFD801B41F2883379
:1032B0009842F3D9032006E14FF4C6718848FEF71F
:1032C000C9FEC0E70025D0E7844A136843F4807341
:1032D0001360FFF7E9FD0646804B1B6813F4807FFF
:1032E000C8D1FFF7E1FD801B0228F5D90320EAE0F1
:1032F000794A136F43F001031367C9E7764B1A6FDE
:1033000042F004021A671A6F42F001021A67BFE71F
:10331000FFF7CAFD0646704B1B6F13F0020F08D073
:10332000FFF7C2FD801B41F288339842F3D9032096
:10333000C9E0002D3ED1A369022B41D8A369002B1F
:1033400000F0C080644A926802F00C02082A00F083
:103350009380022B7CD1E36913B1B3F5800F35D193
:10336000236A3F2B38D8636A323BB3F5BF7F39D825
:10337000A36A022B08D0082B3AD84FF4A87222FA7D
:1033800003F313F0010F33D0E36A023B0D2B35D862
:10339000544B00221A66FFF787FD05464E4B1B680B
:1033A00013F0007F30D0FFF77FFD401B0228F5D9D6
:1033B000032088E0484A136C23F080531364BAE773
:1033C00040F2CF114648FEF745FEB7E74FF4EC71E7
:1033D0004348FEF73FFEC3E740F2D9114048FEF7ED
:1033E00039FEC0E74FF4ED713D48FEF733FEBFE70D
:1033F00040F2DB113A48FEF72DFEC5E74FF4EE71BF
:103400003748FEF727FEC3E7E369226A1343626A7F
:1034100043EA8213A26A5208013A43EA0243E26A8B
:1034200043EA02632C4A53602E4B01221A66FFF7CF
:103430003BFD0446284B1B6813F0007F06D1FFF7C5
:1034400033FD001B0228F5D903203CE000203AE0C0
:10345000244B00221A66FFF727FD04461E4B1B680B
:1034600013F0007F06D0FFF71FFD001B0228F5D9DF
:10347000032028E0002026E0012B26D0164B5B68B5
:1034800003F48001E269914221D103F03F02216AF5
:103490008A421ED1616A47F6C0721A408A4223D11D
:1034A00003F44032A16A8A4220D103F07063E26AD9
:1034B00093421DD1002006E001207047012002E068
:1034C000012000E0002002B070BD0120FBE70120D8
:1034D000F9E70120F7E700BF003802400070004024
:1034E0007C520008000047420120ECE70120EAE797
:1034F0000120E8E708B5334B9B6803F00C03042B6D
:103500005BD0082B5BD12F4B5A6802F03F025B68FF
:1035100013F4800F2CD02B4B5868C0F388104FEA5F
:10352000401CBCEB000C6EEB0E0E4FEA8E1343EA10
:103530009C634FEA8C11B1EB0C0163EB0E03DB00D3
:1035400043EA5173C90011EB000C43F10003590227
:1035500000234FEA4C2041EADC5100F051F9194BAD
:103560005B68C3F3014301335B00B0FBF3F027E07A
:10357000144B5868C0F388104FEA401CBCEB000C99
:103580006EEB0E0E4FEA8E1343EA9C634FEA8C11EA
:10359000B1EB0C0163EB0E03DB0043EA5173C9008E
:1035A00011EB000C43F10003990200234FEA8C2039
:1035B00041EA9C5100F024F9D1E7034800E00348B8
:1035C00008BD00BF0038024000127A000024F40059
:1035D000002800F0FA8070B50D4604460368013BF0
:1035E0000E2B30D8072D34D87C4B1B6803F00F030B
:1035F000AB4208D2EBB2794A1370136803F00F03A1
:10360000AB4240F0E480236813F0020F32D013F095
:10361000040F04D0724A936843F4E0539360236824
:1036200013F0080F04D06E4A936843F4604393602C
:10363000A368C3B1C02B16D049D8A02B13D00ED984
:10364000B02B10D049E040F251216648FEF702FD50
:10365000C8E740F252216348FEF7FCFCC4E7802B28
:1036600001D0902B39D15E4A936823F0F003A16812
:103670000B439360236813F0010F48D06368032B5A
:1036800031D86368012B34D09A1E012A38D9544AA4
:10369000126812F0020F00F09C8051498A6822F0F3
:1036A000030213438B60FFF7FFFB06464C4B9B68FE
:1036B00003F00C036268B3EB820F28D0FFF7F4FB32
:1036C000801B41F288339842F0D9032070E0E02B50
:1036D000C9D0F02BC7D0D02BC5D040F275214148BE
:1036E000FEF7B8FCBFE74FF41F713E48FEF7B2FC8F
:1036F000C7E73B4A126812F4003FCED1012057E0E1
:10370000374A126812F0007FC7D1012050E0334BD6
:103710001B6803F00F03AB4207D9EAB22F4B1A70B4
:103720001B6803F00F03AB4255D1236813F0040F5D
:1037300014D0E3685BB1B3F5805F08D0B3F5A05F48
:1037400005D0B3F5C05F02D0B3F5E05F31D1244AB4
:10375000936823F4E053E1680B439360236813F00C
:10376000080F15D023695BB1B3F5805F08D0B3F5BE
:10377000A05F05D0B3F5C05F02D0B3F5E05F1ED106
:10378000174A936823F46043216943EAC1039360B5
:10379000FFF7B0FE124B9B68C3F30313124AD35CCE
:1037A000D840124B1860124B1868FFF73DFB002001
:1037B00070BD40F2BA210B48FEF74CFCC7E740F25F
:1037C000C1210848FEF746FCDAE7012070470120D6
:1037D000EEE70120ECE70120EAE700BF003C0240F1
:1037E000003802407C520008985000084000002039
:1037F00048000020014B1868704700BF40000020BF
:1038000053B94AB9002908BF00281CBF4FF0FF3147
:103810004FF0FF3000F06AB9ADF1080C6DE904CE4D
:1038200000F006F8DDF804E0DDE9022304B070479B
:103830002DE9F047089D0C46002B4ED194468C454F
:103840008646B2FA82F262D94AB1C2F120039140AF
:1038500020FA03F30CFA02FC194300FA02FE4FEAC5
:103860001C471FFA8CF6B1FBF7F44FEA1E4307FB27
:10387000141143EA014304FB06F199420AD91CEBF7
:10388000030304F1FF3080F01381994240F210816C
:10389000023C6344591A1FFA8EF3B1FBF7F007FBA1
:1038A000101143EA014300FB06F69E420AD91CEBC5
:1038B000030300F1FF3180F0FD809E4240F2FA8068
:1038C000634402389B1B40EA044000211DB1D340F1
:1038D0000022C5E90032BDE8F0878B4205D90DB161
:1038E000C5E9000100210846F5E7B3FA83F1002994
:1038F00046D1A34202D39042C0F0F180861A64EB15
:1039000003030120002DE6D0C5E90063E3E7002AA8
:1039100040F09180A1EB0C044FEA1C481FFA8CF791
:103920000121B4FBF8F64FEA1E4308FB164443EAB4
:10393000044307FB06F0984208D91CEB030306F189
:10394000FF3402D2984200F2CE8026461C1A1FFA9B
:103950008EF3B4FBF8F008FB104443EA044300FB89
:1039600007F79F4208D91CEB030300F1FF3402D292
:103970009F4200F2B1802046DB1B40EA0640A5E7EB
:10398000C1F120068B4022FA06F71F4320FA06FCFD
:1039900004FA01F343EA0C03F44000FA01F8380C8E
:1039A0004FEA1349B4FBF0FE1FFA87FC00FB1E44EC
:1039B00049EA04440EFB0CF9A14502FA01F20AD9C6
:1039C0003C190EF1FF3A80F08580A14540F28280DB
:1039D000AEF1020E3C44A4EB09041FFA83F9B4FBD8
:1039E000F0F300FB134449EA044403FB0CFCA44538
:1039F00007D93C1903F1FF3068D2A44566D9023BD0
:103A00003C4443EA0E40A0FB0293A4EB0C049C420E
:103A1000CE469C4652D34FD055B1B8EB0E0364EB63
:103A20000C0404FA06F6CB40CC401E43C5E9006402
:103A30000021BDE8F087C2F1200320FA03F10CFA5F
:103A400002FC24FA03F394400C434FEA1C4800FAAA
:103A500002FE1FFA8CF7B3FBF8F008FB1031230CC1
:103A600043EA014300FB07F1994208D91CEB030329
:103A700000F1FF362CD299422AD9023863445B1AEE
:103A8000A4B2B3FBF8F108FB113344EA034401FB91
:103A900007F3A34208D91CEB040401F1FF3613D24B
:103AA000A34211D902396444E41A41EA004138E7DB
:103AB0000446EFE6084605E7C845ADD2B9EB020E6D
:103AC00063EB070C0138A7E73146EDE7034698E7BB
:103AD0003046D4E7D6467EE7634402384CE70646D4
:103AE000234608460EE7023E63442FE7704700BFB7
:103AF000164B10B51C68236BB3B9182000F05AFBA5
:103B00000246206320B9124B12485221FEF71EFFD5
:103B10001149124BC0E90013114B83600B238381C1
:103B200000210120C2E90401216B0E480B694C6998
:103B30000D4A584302FB0400A3FB0232013340EB61
:103B40000200C1E9043020F0004010BD5800002000
:103B5000AA520008C15200080E33CDAB34126DE6F4
:103B6000ECDE05002DF451582D7F954C002310B547
:103B70000446C0E90033C0E90433836081814366B1
:103B8000C2818361194608225C3000F051FA0D4B66
:103B900063620D4BA3620D4BE3620D4B23630D4B30
:103BA00024629C4206D003F16802944202D0D033D2
:103BB0009C4205D104F15800BDE8104000F08CBAD9
:103BC00010BD00BF113E0008333E00086B3E0008E8
:103BD0008F3E000834300120024A0349034800F0B8
:103BE00069B800BF4C000020814C00085C00002038
:103BF00041680C4B994210B5044601D001F040F8E1
:103C0000A168094B994202D0204601F039F8E168D9
:103C1000064B994204D02046BDE8104001F030B870
:103C200010BD00BF343001209C3001200431012040
:103C300010B50B4B0B4C0C4A1A6020460022042195
:103C4000FFF794FF04F1680001220921FFF78EFFBE
:103C500004F1D0000222BDE810401221FFF786BF18
:103C60006C31012034300120D93B0008014800F0BC
:103C700034BA00BF71310120014800F02FBA00BFF3
:103C80007131012010B50446FFF7F0FF236A1BB124
:103C9000BDE81040FFF7F0BF044B2362044B1B68E4
:103CA000002BF5D1FFF7C4FFF2E700BFF13B00089E
:103CB0006C3101202DE9F84307468846144600265A
:103CC000D4E90195B9F1010905D52468002CF7D193
:103CD0003046BDE8F883AB89012B07D9B5F90E3022
:103CE000013303D029463846C04706436835E9E723
:103CF0000FB407B5064904AB086853F8042B816874
:103D0000019300F087FC03B05DF804EB04B070474A
:103D100058000020036A70B5846805460E460BB94A
:103D2000FFF7B0FF636EDB0705D4A389980502D4C3
:103D3000A06D00F0D2F9A389190702D52369002BE1
:103D400035D12146284600F01DF980B34FF0FF35EC
:103D5000636EDA0705D4A3899B0502D4A06D00F039
:103D6000BDF9284670BD002B15DB23685A1C226064
:103D70001970A36816F8011F013BA3600029F2D156
:103D8000002B16DA22460A21284600F0BDF8013041
:103D9000DCD00A25DCE7A2699A4201DC0A29E4D1D9
:103DA0002246284600F0B0F80130E2D1CEE7013ECD
:103DB000DFE723685A1C22600A221A70E9E7000034
:103DC000024B01461868FFF7A5BF00BF580000204E
:103DD0000EB400B59CB01DAB029006906FF0004190
:103DE000094807910491094953F8042B059100688B
:103DF000019302A900F0E8FA029B00221A701CB09D
:103E00005DF804EB03B07047580000200802FFFF84
:103E100010B50C46B1F90E1000F034F90028ABBF14
:103E2000636DA3891B1823F48053ACBF6365A38122
:103E300010BD2DE9F0411F468B89DB0505460C4678
:103E4000164605D5B1F90E100223002200F008F93C
:103E5000A389B4F90E1023F48053A38132463B4664
:103E60002846BDE8F04100F01FB910B50C46B1F985
:103E70000E1000F0F5F8431CA38915BF606523F40C
:103E8000805343F48053A38118BFA38110BDB1F9BF
:103E90000E1000F0D5B830B51446002C9BB0054686
:103EA0001A4605DA8B2303604FF0FF301BB030BD9C
:103EB0004FF40273ADF80C3014BF04F1FF33234606
:103EC000029305934FF6FF7300910491ADF80E3005
:103ED00069461E9B00F078FA431CBCBF8B232B6005
:103EE000002CE3D0009B00221A70DFE707B5009397
:103EF00013460A46014603480068FFF7CCFF03B0AB
:103F00005DF804FB58000020F8B50E46144605463F
:103F100018B1036A0BB9FFF7B5FEA369A360A389C3
:103F20001A0701D5236943B92146284600F02AF82B
:103F300018B14FF0FF373846F8BD23682269981A48
:103F40006369F6B28342374605DC2146284600F015
:103F500097FE0028EDD1A368013BA36023685A1C9B
:103F600022601E706269431C9A4204D0A389DB0759
:103F7000E1D50A2EDFD12146284600F081FE002837
:103F8000D9D0D6E738B5294B054618680C4618B184
:103F9000036A0BB9FFF776FEB4F90C30190722D487
:103FA000DA0607D409222A6043F04003A3814FF0C8
:103FB000FF3033E0580712D5616B41B104F144037F
:103FC000994202D0284600F0ABF800236363A3892E
:103FD00023F02403A3810023636023692360A38962
:103FE00043F00803A38123694BB9A38903F4207329
:103FF000B3F5007F03D02146284600F08FFEB4F9C8
:104000000C3013F001020AD00022A2606269524211
:10401000A261226942B913F08000C5D138BD990769
:1040200058BF6269A260F4E70020F7E7580000205B
:1040300002440346934200D1704703F8011BF9E79D
:1040400038B5064D0023044608462B60FEF77EFE79
:10405000431C02D12B6803B1236038BD2C300120F2
:1040600038B5074D04460846114600222A601A4614
:10407000FEF726FE431C02D12B6803B1236038BD36
:104080002C30012038B5074D044608461146002261
:104090002A601A46FEF7AEFD431C02D12B6803B11D
:1040A000236038BD2C30012038B5074D0446084642
:1040B000114600222A601A46FEF716FE431C02D162
:1040C0002B6803B1236038BD2C300120014B1868E8
:1040D000704700BF5800002070477047704710F8C5
:1040E000012B11F8013B012A28BF9A42F7D0D01AC0
:1040F00070470A44914200F1FF3300D1704710B578
:1041000011F8014B03F8014F9142F9D110BD03465C
:1041100013F8012B002AFBD1181A01387047000050
:1041200038B50546002941D051F8043C0C1F002B3E
:10413000B8BFE41800F0E0F81D4A136833B96360B3
:1041400014602846BDE8384000F0DCB8A34208D926
:10415000206821188B4201BF19685B68091821602B
:10416000EDE71A465B680BB1A342FAD91168501803
:10417000A0420BD120680144501883421160E0D165
:1041800018685B68536008441060DAE702D90C23B2
:104190002B60D6E7206821188B4204BF19685B6842
:1041A000636004BF091821605460CAE738BD00BFCE
:1041B00078310120024B0146186800F025B800BF95
:1041C0005800002070B50F4E0C463168054611B9F5
:1041D00000F01CFE30602146284600F017FE431C0C
:1041E00003D14FF0FF34204670BDC41C24F00304FB
:1041F000A042F8D0211A284600F008FE0130F2D182
:10420000EFE700BF743101202DE9F041CD1C25F00E
:10421000030508350C2D38BF0C25002D064601DBA3
:10422000A94204D90C2333600020BDE8F081314F4E
:1042300000F062F83B681C4644BB29463046FFF755
:10424000C1FF431C044650D13C682146002941D19E
:10425000002C44D02368304604EB030800F0D6FD60
:1042600080453CD121686D1A29463046FFF7AAFFE8
:10427000013034D023682B4423603B68002B36D0B8
:104280005A68A24229D100225A600EE02268521BCD
:104290001DD40B2A16D96119A342256018BF596095
:1042A000636808BF396062514B60304600F02AF8FD
:1042B00004F10B00231D20F00700C21AB5D01B1A11
:1042C000A350B2E7A3426268DED13A60EDE723462D
:1042D0006468B1E70C464968B8E71346CEE70C239B
:1042E0003360304600F00EF89EE70560DDE75B6066
:1042F000FFDE00BF783101200148FFF7EEBE00BFAE
:10430000703101200148FFF7E9BE00BF7031012084
:104310002DE9F0478E681F46BE420B6882460C4668
:1043200090462DD8B1F90C2012F4906F26D0656913
:10433000096905EB4505A3EB010905EBD5757B1C68
:104340004B446D109D4238BF1D46530527D5294665
:10435000FFF75AFF064660B321694A46FFF7C9FED8
:10436000A38923F4906343F08003A38126616561F0
:104370004E44A5EB09052660A5603E46BE4200D925
:104380003E4620683246414600F004FDA3689B1B70
:10439000A3602368334423600020BDE8F0872A46E9
:1043A00000F096FD06460028E0D121695046FFF74F
:1043B000B7FE0C23CAF80030A38943F04003A38161
:1043C0004FF0FF30E9E700002DE9F04F98468B8968
:1043D0001B069DB007460D46144610D50B6973B9F0
:1043E0004021FFF711FF2860286130B90C233B60A2
:1043F0004FF0FF301DB0BDE8F08F40236B6100230C
:10440000099320238DF82930CDF80C803023DFF874
:104410009C818DF82A304FF0010923469A4613F803
:10442000012B0AB1252AF9D1BAEB040B0BD05B465C
:10443000224629463846FFF76BFF013000F0A7807F
:10444000099A5A4409929AF80030002B00F09F8094
:1044500000234FF0FF32CDE905230AF1010A04934E
:1044600007938DF853301A935446052214F8011B14
:104470004E4800F0DDFC049AD8B9D00644BF202392
:104480008DF85330110744BF2B238DF853309AF821
:1044900000302A2B15D0079A544600204FF00A0C02
:1044A000214611F8013B303B092B4BD9B0B10792A3
:1044B00014E0A0EB080309FA03F313430493A246A4
:1044C000D2E7039B191D1B680391002BBBBF5B4206
:1044D00042F0020207930793B8BF049223782E2B71
:1044E0000AD163782A2B32D1039B1A1D1B680392D1
:1044F00043EAE37302340593DFF8C0A02178032276
:10450000504600F095FC38B1049BA0EB0A00402215
:10451000824013430134049314F8011B24488DF89E
:104520002810062200F084FC002836D0214B1BBB4B
:10453000039B073323F0070308330393099B33449A
:1045400009936AE70CFB02320C460120A8E700231E
:104550000134059319464FF00A0C204610F8012B40
:10456000303A092A03D9002BC6D00591C4E70CFBC9
:10457000012104460123F0E703AB00932A460E4BCA
:1045800004A93846AFF30080421C0646D6D1AB8959
:104590005B063FF52DAF09982CE703AB00932A4645
:1045A000054B04A9384600F0BBF9EDE73754000885
:1045B0004154000800000000114300083D54000869
:1045C0009368013B002B10B4936008DA9469A3420E
:1045D00001DB0A2903D15DF8044BFFF795BC136892
:1045E000581C1060197008465DF8044B7047F8B508
:1045F00006460F461446D518AC4201D1002007E00C
:1046000014F8011B3A463046FFF7DAFF431CF3D19A
:10461000F8BD00002DE9F04F0D469DB014469846B8
:10462000064618B1036A0BB9FFF72CFB6B6ED9076E
:1046300005D4AB899A0502D4A86DFFF74EFDAB896E
:104640001B0701D52B699BB929463046FFF79AFC19
:1046500070B16B6EDC0704D54FF0FF301DB0BDE8C4
:10466000F08FAB899805F7D4A86DFFF737FDF3E716
:104670000023099320238DF82930CDF80C803023B6
:10468000DFF8AC818DF82A304FF0010923469A46B5
:1046900013F8012B0AB1252AF9D1BAEB040B0BD080
:1046A0005B46224629463046FFF7A1FF013000F065
:1046B000A780099A5A4409929AF80030002B00F01A
:1046C0009F8000234FF0FF32CDE905230AF1010A54
:1046D000049307938DF853301A935446052214F827
:1046E000011B534800F0A4FB049AD8B9D10644BF7B
:1046F00020238DF85330130744BF2B238DF85330FC
:104700009AF800302A2B15D0079A544600204FF013
:104710000A0C214611F8013B303B092B4BD9B0B1B3
:10472000079214E0A0EB080309FA03F31343049380
:10473000A246D2E7039B191D1B680391002BBBBF48
:104740005B4242F0020207930793B8BF04922378BA
:104750002E2B0AD163782A2B32D1039B1A1D1B689A
:10476000039243EAE37302340593DFF8D4A021787F
:104770000322504600F05CFB38B1049BA0EB0A001A
:104780004022824013430134049314F8011B29484A
:104790008DF82810062200F04BFB00283FD0264B56
:1047A0001BBB039B073323F0070308330393099BC9
:1047B0003B4409936AE70CFB02320C460120A8E750
:1047C00000230134059319464FF00A0C204610F8D7
:1047D000012B303A092A03D9002BC6D00591C4E732
:1047E0000CFB012104460123F0E703AB00932A46AA
:1047F000124B04A93046AFF300800746781CD6D18F
:104800006B6ED90705D4AB899A0502D4A86DFFF762
:1048100065FCAB895B063FF51FAF09981EE703AB4C
:1048200000932A46054B04A9304600F079F8E4E7E6
:10483000375400084154000800000000EF4500080C
:104840003D5400082DE9F047164698468A680B69E2
:10485000DDF820909342B8BF1346336091F84320AF
:1048600007460C460AB1013333602368990642BFFC
:10487000336802333360256815F0060506D104F16C
:10488000190AE36832689B1AAB4226DC94F843307D
:104890002268003B18BF012392062BD404F1430287
:1048A00041463846C84701301ED02368226903F0CC
:1048B0000603042B02BFE5683368ED1AA3680CBF3A
:1048C00025EAE57500259342C4BF9B1AED18002622
:1048D0001A34B5421AD1002008E00123524641465D
:1048E0003846C847013003D14FF0FF30BDE8F087AC
:1048F0000135C6E7E1185A1C302081F843002244F4
:1049000094F8451082F843100233C7E7012322468A
:1049100041463846C8470130E6D00136D9E70000A5
:104920002DE9FF470F7E0C9E782F914680460C465E
:104930009A4601F1430207D8622F0AD8002F00F0EF
:10494000DD80582F00F0C38004F1420684F84270E5
:104950003AE0A7F16303152BF6D801A151F823F033
:10496000B9490008CD4900084949000849490008EB
:104970004949000849490008CD490008494900084B
:10498000494900084949000849490008E34A000824
:104990005B4A00089B4A0008494900084949000849
:1049A000054B0008494900085B4A000849490008CE
:1049B00049490008A34A000833681A1D1B68326081
:1049C00004F1420684F842300123A8E031682368EC
:1049D000081D30601E0601D50D6803E05D06FBD59D
:1049E000B1F900506168002D78DA2D20002984F893
:1049F0004300A1602DDA5E486D420A231646B5FBDE
:104A0000F3F103FB1157C75D06F8017D2F46BB424A
:104A10000D46F4D9082B0BD12368DF0708D523698D
:104A200061689942DEBF302306F8013C06F1FF368B
:104A3000921B2261CDF800A04B4603AA21464046B6
:104A4000FFF700FF01306FD14FF0FF3004B0BDE839
:104A5000F08723F004032360CDE72168336808065C
:104A600053F8045B02D4490648BFADB26F2F4048EB
:104A7000336014BF0A230823002184F843106668BA
:104A8000A660002EBADB216821F004012160002D10
:104A9000B4D1002EB2D11646BCE7236843F0200300
:104AA00023603448782784F84570236831681F06EE
:104AB00051F8045B02D45F0648BFADB23160D9073C
:104AC00044BF43F0200323601DB11023D4E72848DE
:104AD000E9E7236823F020032360F6E724480A234C
:104AE000CDE7336825686169181D30602E061B68A4
:104AF00001D5196002E06806FBD519800023236107
:104B0000164697E733681A1D32601E6862680021F6
:104B1000304600F08DF908B1801B60606368236146
:104B2000002384F8433085E72369324649464046EE
:104B3000D047013088D023689B0714D4E068039BDA
:104B40009842B8BF184681E701233246494640469D
:104B5000D04701303FF478AF0135E36803995B1A21
:104B6000AB42F1DCEAE7002504F11906F5E700BFE6
:104B70004854000859540008B1F90C202DE9F041BF
:104B8000170705460C4656D44B68002B02DC0B6C0D
:104B9000002B3DDDE66A002E3AD0002312F480524D
:104BA0002F68216A2B6025D0626DA389580705D52F
:104BB0006368D21A636B0BB1236CD21A216AE66A5E
:104BC00000232846B047411C24D00023636023699A
:104BD0002360A389DA0400D56065616B2F60B9B1E9
:104BE00004F14403994202D02846FFF799FA0023C2
:104BF00063630DE001232846B047461C0246D4D12A
:104C00002B68002BD1D01D2B01D0162B2BD12F6060
:104C100000202FE02A68B4F90C3042B11D2A01D0DF
:104C2000162A22D10023636023692360D5E76260DE
:104C300022692260CEE70F69002FE9D093070E6842
:104C400008BF4B690F6018BF0023A6EB07088B60F5
:104C5000B8F1000FDCDD216AA66A43463A462846D1
:104C6000B047002808DCB4F90C3043F04003A381BE
:104C70004FF0FF30BDE8F0810744A8EB0008E7E7FC
:104C800038B50B6905460C4613B90025284638BDD2
:104C900018B1036A0BB9FEF7F5FFB4F90C30002B1D
:104CA000F3D0626ED00704D4990502D4A06DFFF74B
:104CB00014FA28462146FFF75FFF636EDA070546C0
:104CC000E4D4A3899B05E1D4A06DFFF707FADDE7E3
:104CD00070B50C46B1F90E10002996B015461E4667
:104CE0000DDAA38913F0800F4FF0000114BF4023A9
:104CF0004FF48063002031602B6016B070BD6A46AF
:104D000000F062F80028ECDB019901F47041A1F594
:104D10000053594259414FF48063EBE78B89F7B553
:104D20009D0706460C4607D504F14703236023611F
:104D30000123636103B0F0BD01AB6A46FFF7C8FF12
:104D4000009F054639463046FFF75EFA48B9B4F988
:104D50000C309A05EED423F0030343F00203A38141
:104D6000E2E7A389206043F08003A381019BC4E9AB
:104D700004075BB1B4F90E10304600F037F828B1E3
:104D8000A38923F0030343F00103A381A3891D43F7
:104D9000A581CFE7884210B501EB020402D9844215
:104DA000234607D8431EA14208D011F8012B03F86F
:104DB000012FF8E7024401468A4200D110BD13F8E2
:104DC000014D02F8014DF7E738B5074D00230446C1
:104DD000084611462B60FDF7FFFF431C02D12B68EC
:104DE00003B1236038BD00BF2C30012038B5064D1B
:104DF0000023044608462B60FDF7FBFF431C02D14D
:104E00002B6803B1236038BD2C30012038B5064D26
:104E10000023044608462B60FDF7BCFD431C02D16D
:104E20002B6803B1236038BD2C3001200000000046
:104E300001F0FF01102A2BDB10F0070F08D010F84B
:104E4000013B013A8B422DD010F0070F42B3F6D14F
:104E5000F0B441EA012141EA014122F007047FF068
:104E600000070023F0E80256083C85EA010586EABF
:104E7000010685FA47F5A3FA87F586FA47F6A5FAFB
:104E800087F68EB9EED1F0BC01F0FF0102F0070207
:104E900032B110F8013B013A83EA010313B1F8D1B2
:104EA0000020704701387047002D06BF3546033893
:104EB000073815F0010F07D1013015F4807F02BFCC
:104EC000013015F4C03F0130F0BC0138704700BF1D
:104ED0002DE9F041804615460C4621B9BDE8F04168
:104EE0001146FFF791B92AB9FFF71AF900242046B5
:104EF000BDE8F08100F01AF88542064602D8B5EB0D
:104F0000500FF4D829464046FFF77EF9074600289F
:104F1000ECD0B5422A46214628BF3246FFF7E9F8D1
:104F200021464046FFF7FCF83C46E0E751F8043CD8
:104F3000181F002BBCBF0B58C018704749444C4584
:104F400000000000546D725100000000546D72208A
:104F50005376630057726F6E6720706172616D6582
:104F6000746572732076616C75653A2066696C654C
:104F7000202573206F6E206C696E652025640D0AF4
:104F80000000000052656365697665642025732022
:104F90000A0000004469646E2774205265636569E5
:104FA0007665000054696D652069732025640000F2
:104FB00053656E64657220310000000053656E64B5
:104FC0006572203120426C6F636B656400000000E5
:104FD00053656E64657220320000000053656E6494
:104FE0006572203220426C6F636B656400000000C4
:104FF0000A546F74616C204E756D626572204F6645
:10500000205472616E736D6974746564204D6573AC
:1050100073616765733D202564200A00546F7461D5
:105020006C204E756D626572204F6620426C6F6316
:105030006B6564204D657373616765733D202564FE
:10504000200A0A0047616D65204F7665720A0000EC
:1050500053656E6465725F5461736B5F310000006D
:1050600053656E6465725F5461736B5F320000005C
:1050700052656365697665725F5461736B00000009
:1050800054696D657231000054696D6572320000BB
:1050900054696D65723300000000000000000000DC
:1050A0000102030406070809537461636B206672EA
:1050B000616D653A0A000000205230203D20202515
:1050C0003038580A00000000205231203D202025B1
:1050D0003038580A00000000205232203D202025A0
:1050E0003038580A00000000205233203D2020258F
:1050F0003038580A0000000020523132203D20256F
:105100003038580A00000000204C52203D20202555
:105110003038580A00000000205043203D20202550
:105120003038580A0000000020505352203D2025FE
:105130003038580A000000004653522F4641523A78
:105140000A0000002043465352203D2020253038DD
:10515000580A00002048465352203D202025303870
:10516000580A00002044465352203D202025303864
:10517000580A00002041465352203D202025303857
:10518000580A0000204D4D464152203D2025303820
:10519000580A00002042464152203D202025303848
:1051A000580A00004D6973630A000000204C522F1A
:1051B0004558435F52455455524E3D20253038588E
:1051C0000A0000003A7474005B48617264466175BD
:1051D0006C745D0A000000005B4275734661756C7B
:1051E000745D0A005B55736167654661756C745D3B
:1051F0000A0000002C2066756E6374696F6E3A2099
:1052000000000000617373657274696F6E2022255F
:105210007322206661696C65643A2066696C65205A
:10522000222573222C206C696E6520256425732548
:10523000730A000061626F727428292C20657869F6
:1052400074696E672E2E2E002E2E5C737973746532
:105250006D5C7372635C73746D333266342D686198
:105260006C5C73746D3332663478785F68616C5F40
:10527000636F727465782E63000000002E2E5C73DD
:10528000797374656D5C7372635C73746D333266CD
:10529000342D68616C5C73746D3332663478785F7A
:1052A00068616C5F7263632E63005245454E542003
:1052B0006D616C6C6F6320737563636565646564B1
:1052C000002F5F5F772F61726D2D6E6F6E652D659C
:1052D0006162692D6763632D787061636B2F617202
:1052E0006D2D6E6F6E652D656162692D6763632D2F
:1052F000787061636B2F6275696C642F77696E33A8
:10530000322D7836342F736F75726365732F6E6527
:10531000776C69622D63796777696E2F6E65776C3C
:1053200069622F6C6962632F7374646C69622F7297
:10533000616E642E63000020202020202020202089
:105340002828282828202020202020202020202035
:105350002020202020202088101010101010101065
:1053600010101010101010040404040404040404A9
:105370000410101010101010414141414141010131
:10538000010101010101010101010101010101010D
:10539000010110101010101042424242424202021B
:1053A00002020202020202020202020202020202DD
:1053B0000202101010102000000000000000000089
:1053C00000000000000000000000000000000000DD
:1053D00000000000000000000000000000000000CD
:1053E00000000000000000000000000000000000BD
:1053F00000000000000000000000000000000000AD
:10540000000000000000000000000000000000009C
:10541000000000000000000000000000000000008C
:10542000000000000000000000000000000000007C
:1054300000000000000000232D302B2000686C4C81
:1054400000656667454647003031323334353637BC
:1054500038394142434445460030313233343536E1
:0A5460003738396162636465660045
:08546C00C4E3FF7F0100000012
:1054740078563412AAAAAAAA96000000C80000000E
:10548400FA0000002C0100005E0100009001000001
:1054940032000000500000006E0000008C0000008C
:1054A400AA000000C8000000FFFFFFFF6400000026
:1054B4000024F40001FFFFFF1000000000000000C2
:1054C40003000000343001205C00002000000000D4
:1054D400343001209C300120043101200000000000
:1054E40000000000000000000000000000000000B8
:1054F40000000000000000000000000000000000A8
:105504000000000000000000000000000000000097
:0C551400000000000000000032547698F7
:04000005080002B934
:00000001FF
